:100000000C941A200C9442200C9442200C94422010
:100010000C9442200C9442200C9442200C944220D8
:100020000C9442200C9442200C9442200C944220C8
:100030000C9442200C9442200C9442200C944220B8
:100040000C9442200C9442200C9442200C944220A8
:100050000C9442200C9442200C9442200C94763153
:100060000C9442200C9442200C9442200C94422088
:100070000C9442200C9442200C9442200C94422078
:100080000C9442200C9442200C9442200C94422068
:100090000C9442200C9442200C9442200C94422058
:1000A0000C9442200C9442200C944220101000C06A
:1000B000403CC67A46C6C6C6DED25C40C00000FFE1
:1000C0008000FF9EBFFFF9E1F9FFBF9EFF00101007
:1000D0000000804020908884424549F22428F000A6
:1000E000A0409F55954AAA4AA555A553AA52AB5080
:1000F0001010000818FCFAFEFAFE7E7D434060F006
:100100000000C0C080A397CFCFCCCB9BAB85C2C132
:10011000C0C0101000000080C0204080C0E0702EE1
:100120001913160C40803FAF37BB3CBC198A44A062
:1001300050A050A01010000000D8DCFDFEFDEEED38
:10014000FCF8000000000000000F17367EDF5F3E65
:100150001E0F00000000101055001118ED54A95C8E
:10016000A54495040DF801AAA108983877090A89D1
:100170000A890A85038100AA101000000000E0F837
:10018000FC86020232240810E000003030F0FF1F2D
:100190001F1F1D1A1C0C0C06030010100000FCFE93
:1001A000FF8F9FFFFF9F8FFFFEFC000000007FFF7F
:1001B0007F3F7FFF7F3F7FFF7F3F00001010003CAD
:1001C0000E6100E030E6E630E000610E3C00000029
:1001D0003F7F82024242424202827F3F0000101073
:1001E00011EEAAAAAEB1BDBDBDBDB1AEAAAAEE11B7
:1001F00093ACB83E467E86DEDE867E463EB8AC9345
:100200001010E0F478C7BE68DCFEFEDC68BEC738BC
:10021000F4E0011C0FCB61F73F1F1F3FF761CB0FCD
:100220001C011010E010C824904000808000409015
:1002300024C810E007081324090200010100020984
:10024000241308071010383C383838F8387838F854
:1002500078F878F080000000000000000101010340
:100260000D1A352A353F101000382828EF01EF28E5
:1002700028B880E020E08080E0B0F0D0FF70FFD0B0
:10028000F073E2BEE07EE2C3101000FF01FD05F551
:1002900055555555545450F00000000F003F00FFD5
:1002A000D5D5D5FD0575351700001010C0202010DC
:1002B0007CC28109191A69368890906000314949D9
:1002C00045320A0808080505091209061010F0E869
:1002D0003D9655D6AD7E7DAED556953EE8F0511B88
:1002E000C63D6CD892D090D0986C3DC61B51101072
:1002F00000008040A0A2D4F4E8F4726562C08000DF
:10030000BC50AF5FBF3FBF39B036B93DBD5EAFF047
:1003100010100008F4FA3D3AC2FDFE1E1DFA44BE5C
:10032000C280001639717274FBDBDBDAED6E773355
:10033000171F1010000000F20D52A53694282890C7
:1003400060800000000078C51A00FD3B3BF900D337
:10035000E03708000F0F80C0C07E777EF8C0C0C0B5
:100360008080E0F0800001013F773F0F0101010034
:10037000000307001010804050D08040F95C5DF908
:100380004080D0504080000101216F21272C2C2774
:10039000216F21010100101000000018A464220A3E
:1003A0000201063840800000000000000F907F84AA
:1003B000600004FF100F000010100080700864320D
:1003C000B9D9CD4DCD4DC9421CE0C0CF50A74E1874
:1003D0001DB73326272607A651CE1010040A010A9E
:1003E00010208040E0E0C00000000000000000009D
:1003F000000307073E7DF3F3BFDF6E3C0F0F0EE5F2
:10040000F6F5E6CD9E3D9ECDE6F5F6E50E38533782
:100410005733593C5E3C5933573753380F0FFCC2A2
:1004200099BDBD99C3FFC399BDBD99C2FC1F214CA5
:100430005E5E4C617F614C5E5E4C211F0F0FE0F8E9
:100440001C02000E9FFF9F0E00021CF8E0030F1E0F
:100450003C3C7E7F7F7F7E3C3C1E0F030F0F0000E5
:10046000F008040706F506070408F0C000000007BE
:100470000810705030517210080701000F0FE0187B
:100480000402020181FF810102020418E0030C183A
:10049000242241407F40412224180C030F0F00000A
:1004A00000000030498680314E408000007070703E
:1004B0007070707070707171027401760F0F20008F
:1004C000408218E080FD80E01882400010000000AB
:1004D0003F7F5F5555555F7F3F0000000F0F0000C5
:1004E0000F1123C2230123C223110F000000605803
:1004F000444A41484148414A445860000F0F0000B7
:10050000002050DE434143DE5020000000004060E8
:100510005846414040404146586040000F0F252951
:100520003325293F0101013F2925332925524A66F8
:10053000524A7E4040407E4A52664A520F0F80A087
:10054000A4E8F0FEF8FFF8FEF0E8A4A08000021294
:100550000B073F0F7F0F3F070B1202000F0FFCFD31
:10056000FC01C1E1F1F1F1E1C101FCFDFC1F5F1FE4
:100570004041434747474341401F5F1F0F0FE11A68
:1005800025F21592F522F51295F2251AE11F204069
:10059000112121292C2921211140201F0F0F3878EA
:1005A000F8F878B8D8E8B0D87CB61B0F0718186CE4
:1005B000761F0D061B3D7E7F7F0000000F0FE0F0D1
:1005C000F8FCFC04F88404041404F8000007013F5C
:1005D0007F674702073F7F7F400F58700F0FFF1F55
:1005E000DFDFEFF7FB01FFDF37ED1BF70F7F7C7DD0
:1005F0007D7B776F407F7D765B6C77780F0F55AA98
:100600000178FCCE8686CEFC7801AA55AA552A41EF
:100610001A58197F7F19581A412A552A0F0F2A95FF
:10062000CAD5CAD5CA856071399D4F873F1E3F71B3
:10063000606060713F1F00552A552A550F0F00005A
:10064000FE013D352D352D353D01FE500000001FCA
:100650002022673270306221603F55000F0F00305A
:1006600040202000077CF0DF7040000000000E3FBB
:100670000E004C4F4113234B404E10000F0F21032F
:10068000870E1E3D7DFBFBF777AFEF070322004887
:100690000022004800210048002100480F0F307858
:1006A00078405E57575757575E40787830000003C0
:1006B0001F204151545141201F0300000F0F0F888C
:1006C000E1F2FACA4A7A7A32228A09080720630FCD
:1006D000172F1E2C1C2C1809222908610F0F020449
:1006E0000644743E6577259E8486840200441A562B
:1006F0001A441850005D1D59195D1D400F0F80A050
:10070000A8A800263087302600A8A8A08000020AEA
:100710002A2A00465E46002A2A0A02000E0EE0A09F
:10072000A2A5A9AAB4AAA9A9A5A2A0E0003F202A2F
:10073000242A242A242A24203F000E0E0000FC0232
:10074000F9F9F9F9F9F902FC000000000F10232370
:100750002B2B2323100F00000E0E0F31C10912A204
:1007600044A4089020408000000000010204081208
:100770001112080413200E0E00E1100908050405EB
:1007800004090811E0012F0F2F0020002000200095
:10079000200F2F0F0E0E02F1F2F1F2F112111211D1
:1007A00012F1E20120112111211121112111211138
:1007B00020100E0EF000F8FCFCFEFDFDFDFDFEFC21
:1007C000FCF807081317171717171717171707033A
:1007D0000E0EFCFEAFABABABBBABAFEBABAFFEFCFF
:1007E000010307063E1E0E070606060703010E0E4E
:1007F00070303030F7FFF7F0F0F080C0C0C03F3EFF
:100800003E3E3F2303233F3F000101010E0EFC3E0D
:100810002A3F2AAA2E2EBEBEBF3E3EFC1F2020200D
:10082000292F2820282A2F20201F0E0EFF01017DAE
:10083000555D55755D557D0101FF0F10203F21214C
:100840003F3F3F3F3F20203F0E0E00000088542ACC
:100850005D5D5D2A54880000000E112020202020BC
:1008600020202020110E0E0E84C46232121E32E2AD
:100870002221A151381011223C24243C26230201BC
:10088000000000000E0EE018040202010D8D81C66A
:10089000FEFCF8E0010608101E3F33333F1F1F0F18
:1008A00007010E0EFF9B915B3F9FCFE7F3FB7B7B26
:1008B0007B330C1E1E1E1F0F2733393C3E3F3F3F2C
:1008C0000E0E18F81C0C4E260707264E0C1CF818A6
:1008D000000708103C3A3D3D3A3C100807000E0E58
:1008E000E884F281E284C890A884E284C890000081
:1008F000060F0F0F1F1F1F3F3D3C30000E0E4060C4
:10090000F0F8FC7E3F3F7EFCF8F0604000003F3F87
:100910001F202020201F3F3F00000E0E00000080FF
:10092000601B01011B6080000000000609101626F4
:100930002E2E2616100906000E0EF0082804E20AD4
:100940008A422428488808F00F1010101F10111236
:1009500014141211100F0E0EF0F1C2C4C8D0C0C092
:10096000D0C8C4C2F1F0032310080402000002043E
:10097000081023030E0EE0180422F20105E51112FF
:10098000E20418E001060812132228292212110895
:1009900006010E0EF9F2E409E337171737E309E40D
:1009A000F2F927130924313B3A3A3B312409132742
:1009B0000E0E99BDBD99C399BDBD99C399BDBD9991
:1009C0000C1E1E0C210C1E1E0C210C1E1E0C0E0ECD
:1009D00000EE8000E0988F8F98E00080EE00032703
:1009E000150007072A2A0707001527030E0E70882F
:1009F00074DAAA4A94140A0A8A7488700000010200
:100A0000050B16150A05020100000D0DFF01F96D19
:100A1000E5BDE56DF901FFAA54070C150C150C1581
:100A20000C150C170A150D0D0E1195514E2098C47A
:100A30008408000000000001020000000103070E0E
:100A40001C180D0DE7B0D4E201E010C82828C8102A
:100A5000E0070F1D18181B1C1918191C1A110D0D71
:100A60000E03230981C8E0703E9E181A0008030394
:100A70000F0F0100101410180E070D0D0FFFFFFFD0
:100A8000FB8BC0C0C0C080000012131B13131313D4
:100A9000131B131308040D0DAAFA04F299FD0DFDA2
:100AA00019F204FAAA0A1F001F121F101F101F00BC
:100AB0001F0A0D0D78401EBF2DA92FA92DBF1E4066
:100AC0007807010C07101F001F10070C01070D0D00
:100AD000FF00808000F8F800FFFF00E0E01F101723
:100AE000171017171017171017170D0DFFBB1B5BEB
:100AF0001BBBBBB1B5B1BBBBFF1F1B1B1B1B1B1B18
:100B00001115111B1B1F0D0D108888840402610C28
:100B100081424448900F0606060F001B000703039E
:100B200003070D0DFC02B1B505B5B102FC0000B024
:100B3000B01F000D0D000D0D001F020117170D0D48
:100B4000008040208E1FFF1F8E2040800001020485
:100B5000091316151613090402010D0DC000607962
:100B60007A6C7C6C7A796000C01F001F001F001F28
:100B7000001F001F001F0D0DFC1E0F4F6F6F07475A
:100B800067670F0EFC0708101012141415151410C7
:100B900008070D0DAF01814120914825904925019D
:100BA000AF1E10141201140211001010101E0D0DB2
:100BB000FFAAFF42524A52424242FFAAFF1F0A1FA7
:100BC00008080A090A08081F0A1F0D0DE0A0100EE8
:100BD000E1F5F5F5E10E10A0E00000010E1015158D
:100BE00015100E0100000D0D304A48B6797979B61E
:100BF000484A308000000100010202020518060F79
:100C00000F070D0D1C3C78F142ECECEC42F1783C06
:100C10001C1C1E0F07020F1F0F02070B161C0D0DC9
:100C2000001010303037FD3730301010000306064A
:100C30000C0C181F180C0C0606030D0D0301B0B8A0
:100C40001C0C000C1CB8B0010318100103070600AF
:100C50000607030110180D0D000F11E302D341D355
:100C600002E3110F0008080807101F181F100708DB
:100C700008080D0D00F0087C02297D69B90142BC0D
:100C8000000102041A001F07071F0003180F0D0DB3
:100C90003A79FCC1F04D504DF0C1FC793A1207078A
:100CA0000F03050505030F0707120D0D09BDA1D997
:100CB00075E5FDE5F5D9A1BD091217101315161537
:100CC0001717131017120C0C1E678608102040808F
:100CD000000000000000010202040408090E0E04D6
:100CE0000C0C124A29A595555595A5294A120000C4
:100CF0000104020A0A02040100000C0CF8663169C2
:100D0000E9B1A1E1612166F8030F0A0F03020203B2
:100D10000F0A0F030C0C0609D12204080404629286
:100D200009070C0B0804020101020C0403010C0C5E
:100D30000804C2E1B2140802812284080004000100
:100D40000307060E0C0C08080C0C3FCFC7333939CB
:100D5000C6C6CC3830C000000103060609090C0ED7
:100D60000F0F0C0CFF0155015501FF00545204F800
:100D70000F00050005000F000505000F0C0C00001A
:100D800000A0530F0F53A0000000000003060E0E3A
:100D90000E0E060300000C0C22A4889B1B4824A204
:100DA000A0A020A00504020409090504020405040A
:100DB0000C0C04DE50FCFAFEFEFAFC50DE040103CB
:100DC000000001010101000003010C0CFB03646140
:100DD000218D1D41616403FB0D0C0208080B0B08FB
:100DE00008020C0D0C0C03027F6B556BD5EB556B99
:100DF000557F0000060F0F060000060F0F060C0CB3
:100E0000E0F8FFE6E43C3CE4E6FFF8E001000B0715
:100E10000B01010B070B00010C0C541494D4C0FF00
:100E20000545555054540504010303010405050507
:100E300005050C0CAA10C3F43EFAFFFA3EF4C308F1
:100E40000A00070700030703000707000C0CF8045B
:100E500032393D3DC1C1C1C204F80102040808088D
:100E60000B0B090402010C0C008044DFFFDF44403F
:100E7000401CFC1C0100000F0B030E0800000F00BB
:100E80000C0CFF015555555501FF040408F00D0DDC
:100E9000010D0D0107010D0D01070C0C0C006D6D0E
:100EA000000C0C804C4C202C00000B0B000C0300A1
:100EB000000000000C0CAA003C7E66FFFF66EECC32
:100EC00000550A000307060F0F06070300050C0C68
:100ED00001FE06FA9A6A6A9AFA06FE0108070605F2
:100EE00005050505050607080C0CB8BCBE80FF808B
:100EF000B8BE80FF80800304080A080A080A0804B4
:100F000002010C0C60F0F06006EFEF0660F0F0609C
:100F10000000080C0E0F0F0E0C0800000C0C009FB8
:100F200090FC9A9C9AFC909F00AA00070701030777
:100F300003010707000A0C0C01CC9E3E7EFCF8F270
:100F4000E6CE9C0108030707060401030707030810
:100F50000B0B30C02E11151115112EC030000506D7
:100F600004060006040605000B0B0007FFFFFFFF49
:100F700077777707070007070707070700000000D4
:100F80000B0BC0E0F0F0F0E4C209241209010307E2
:100F900007070301000000000B0B1C224141412206
:100FA0001C000808F80000000704040404040407F7
:100FB0000B0BF8FFFECCC878C8CCFEFFF801030786
:100FC00005050505050703010B0B2030F83C3EFF26
:100FD0003E3CF83020000007040407070707000024
:100FE0000B0B00F40A11151511110AF4000001028F
:100FF00004040404040201000B0B0810102126F85D
:10100000202070507000000000070507000000005D
:101010000B0BFF01A10FA90AFC005555550704044D
:1010200004040407000505050B0B77770777707735
:101030007707777777070707070007070707070787
:101040000B0B0007CFE83EFEC80F070000040005A9
:1010500001000303000400040B0BBF81A1A1212F99
:10106000E009090BF807040407000203000101016D
:101070000B0BD54000FF818181818181FF07040432
:1010800004060004000400040B0B003D60FD80FD1D
:1010900080FD603D0000000004050705040000001D
:1010A0000B0B1C3E7C70FEFFFE80FCFEFC00000073
:1010B00000070707030301000B0B008040281C9862
:1010C0007CFE5F0F0707040402010000000000001F
:1010D0000B0B1F2141913972E44810A04000000021
:1010E00000010204020100000B0BF804525204F844
:1010F00004525204F807020101020702010102072B
:101100000B0B7CFEFFC3C37FC3C3FFFE7C00000745
:1011100007010701070700000B0B00EEFAEE20FEA7
:1011200004F8002020000701070003010000000070
:101130000B0B607864E2627E6000FF000002070231
:1011400000020702000302020B0BFF01DD5D5DDD03
:10115000DDDDDD01FF0704070404070707070407B7
:101160000B0BF0F89C0E0300FF01FD01FF010303D0
:1011700006060401020402010B0B40605048FE0108
:10118000FE48506040000004060504050604000007
:101190000B0BE010FA6C7878786CFA10E000000025
:1011A00001010001010000000A0A007CFDFEFDFEB5
:1011B0007C003800020202020202020200000A0A57
:1011C0000080C080387DEEBCEE790203010303028B
:1011D000030100000A0A080C14FEF4E0C000E0104D
:1011E000000002030303030200000A0A1C3870F81F
:1011F000FEFBF9F9FBFE00000001030303030301FA
:101200000A0A204080FCC0FFE0FFC0FC0000000193
:101210000303030303010A0A484472C1F24448422B
:101220007F42000000010303020000000A0A00FCE4
:101230000209BD898102FC000003020202020202CF
:1012400003000A0A78843231FDFD313284780000CF
:1012500001020202020100000A0A00FF555D55F773
:1012600035BDB5BF000303030303000301000A0AF1
:10127000060F0F3640AA92AA443800000000000072
:10128000030000000A0A00000E1FF9F99F8E0000FB
:10129000000000000303020200000A0AF1FACCCCAD
:1012A0007C7CCCCCFAF103010301030301030103AD
:1012B0000A0A784651C6613E080808F8000203038E
:1012C0000101010203030A0A1018FC1EFF9F9EFC85
:1012D0001810000003020303030300000A0AC16799
:1012E0003962C4386C446C38010302030100000009
:1012F00000000A0A0000FFA9F9A9F9A9FF000000EF
:1013000003020302030203000A0AE070B07EF2F255
:1013100072B67CF0000103010000010301000A0A1B
:1013200001FF45FC8249458902FC000300000000E2
:10133000000001010A0A406070FC3F3FFC70604001
:10134000000002000303000200000A0A78FCFE8F7E
:1013500005050D1B961C000001030302020100009D
:101360000A0AFCB63331FFFF3133B6FC0001030239
:101370000303020301000A0A0E1F5F9F0EC0242808
:1013800021C2010200000001020202010A0AF03C2F
:10139000EE3BBFBF3BEE3CF0000000020303020047
:1013A00000000A0A90DEDE9E3E9ED4D494240103FF
:1013B00003010001030301000A0A0C1E3F3F9E0CBB
:1013C00040902040000000000001020001020909D5
:1013D000000F10A7CFA7100F0000000101010101AD
:1013E00000000909048E5F0E44E0F4E241010000B0
:1013F00000000001000009090C5ED3803F009FDE61
:101400005C0000000101010100000909004CDEDF61
:10141000DFF7F66400000000010101000000090987
:10142000806018E6F3E6186080010100000100000A
:101430000101090900DFB6A4B6DF6060F801010010
:10144000000001010001090982FD82BABABA827F57
:1014500082000100000000000100090907091EBF09
:10146000FFBF1E0907000001010101010000090979
:10147000C02070F86C3E1B0E04010101000000004A
:101480000000090938FE13D31FD313FE38000101F1
:101490000101010101000909CCEEA6F7B7F7A6EE9C
:1014A000CC01010001000100010109097CDA93333C
:1014B0003B3393DA7C0000010101010100000909BE
:1014C0007CF6F3F1FF1F9FDE7C00000101010101AA
:1014D0000000090910D6D600C700D6D610000000BB
:1014E0000001000000000909008040201C1C1E07AC
:1014F0000301000000000000000009090E1B153761
:101500007AF0E0C0000000000000000101010909BC
:101510007C9E33333F33339E7C0000010101010187
:101520000000090900605876FD6E78600001010135
:10153000010101010101090910FE9282D78292FE88
:10154000100000000001000000000909C62929C69A
:1015500010C62929C6000101000000010100090987
:10156000C22E2ACE18C82A2CC80001010000000192
:10157000010009093CC2094D414D09C23C0000016E
:1015800001010101000009091E3F7FFFFEDF6F3BE3
:101590001E00000000010000000009097EF1F17149
:1015A000DF71F1F17E000101000100010100090974
:1015B0004E5959899F8959594E0101010000000176
:1015C0000101080818664E8BAF4E6E1808080F31DF
:1015D000454952225C800808FF7E3C18FC5C7C1C5C
:1015E0000808060F2FA6904C201808081E3360C26A
:1015F000878ADC4808083C7EF3E1C0C460310808F3
:10160000003872E1E17238000808001E3BF3F33B3A
:101610001E000808E0C0983C3C19030708083C027B
:10162000B9BDBD9D403C08083C24E78181E7243CCE
:1016300008081E3F7FFEDE6F331E0808060979BECC
:10164000BE7909060808DB5A18242424241808083F
:10165000619689A8A88996610808C399004242004A
:1016600099C30808815A3C66663C5A810808C098AC
:10167000244242241903080810189CFFFF9C1810EC
:1016800008081008E43F3FE4081008083C638AA0FB
:10169000A08A631C080803070E1C1820C0C0080895
:1016A00000708DB1B18D7000080860C0D8DCDCD846
:1016B000C0600808387CFCFD7BBC7C3807073D789F
:1016C000607A707D380707081C2263221C08070710
:1016D000080C7E7F7E0C0807071E79396F39791E4A
:1016E00007070E1F3F7E3F1F0E07071F1D77535F23
:1016F000447C07071C3E5F5F6F321C0707071527F6
:10170000087254700707775D7722775D7707077057
:101710005C7603765C700707080C0E3F4E2C0807BA
:101720000718045F1D5F041807070822004D1022E8
:101730000807077F69596959697F0707397F393871
:101740003F613F07076B41085D08416B07071C14A9
:10175000774177141C0707775D7505755D77070777
:1017600073517C141F4567070704487A1F7A4804A1
:1017700007071E785C1C7F4F0607070036006300D2
:10178000360007076363000800636307071C2255E0
:101790004955221C07071C22555155221C060610CC
:1017A000381C0D010706060C123F213F0C060604EB
:1017B0001E27271E0406062C3E0F0F3E2C0606078A
:1017C0001D270A122406060F09392F243C06063F5E
:1017D000002D2D003F06060002253D020006060FE3
:1017E0003C0C3F0F060606011E3A3A1E0106062B68
:1017F0000B3807343506061B0F063B190806061280
:101800003300003312060633330000333306061864
:101810000C2633190C060602263F3F260206060355
:101820002438382403060621120C0C122106060C5B
:10183000002D2D000C0606211E12121E2106063C4C
:10184000220909223C06063F090F0F0F0F06063F2B
:101850000F0D0F311106060C122121120C06060C79
:101860001E3F3F1E0C05051B1B041B1B05050E1B05
:101870001F1D0E050503061F060305051C1516157D
:101880001C05050C181E1E04050500121D1200057E
:1018900005021E020E1205051E1E1E0A0E05050873
:1018A0001A1F1A080505150E1B0E15050512191E1F
:1018B00019120505001F0D1F00050504061F16045B
:1018C0000505011E0B1E010505100E1B0E1005055A
:1018D0000E1F1B110005051E0C0F1E0605051E1808
:1018E0001D1E1C0505041E171E040505160D0F0DF3
:1018F000160505061D1F1D0605051E071F071E05EB
:10190000051C0E070E1C0505070F1E0F0705051FFA
:101910001111111F101000C0403CC67A46C6C6C641
:10192000DED25C40C00000FF8000FF9EBFFFF9E1F7
:10193000F9FFBF9EFF0010100000804020908884B7
:10194000424549F22428F000A0409F55954AAA4AF2
:10195000A555A553AA52AB501010000818FCFAFE6A
:10196000FAFE7E7D434060F00000C0C080A397CFA8
:10197000CFCCCB9BAB85C2C1C0C010100000008093
:10198000C0204080C0E0702E1913160C40803FAF7D
:1019900037BB3CBC198A44A050A050A010100000D6
:1019A00000D8DCFDFEFDEEEDFCF8000000000000BC
:1019B000000F17367EDF5F3E1E0F00000000101084
:1019C00055001118ED54A95CA54495040DF801AA21
:1019D000A108983877090A890A890A85038100AA2B
:1019E000101000000000E0F8FC860202322408100B
:1019F000E000003030F0FF1F1F1F1D1A1C0C0C06EA
:101A0000030010100000FCFEFF8F9FFFFF9F8FFF61
:101A1000FEFC000000007FFF7F3F7FFF7F3F7FFFD6
:101A20007F3F00001010003C0E6100E030E6E63021
:101A3000E000610E3C0000003F7F820242424242D1
:101A400002827F3F0000101011EEAAAAAEB1BDBD08
:101A5000BDBDB1AEAAAAEE1193ACB83E467E86DEFD
:101A6000DE867E463EB8AC931010E0F478C7BE68C0
:101A7000DCFEFEDC68BEC738F4E0011C0FCB61F76A
:101A80003F1F1F3FF761CB0F1C011010E010C8244F
:101A9000904000808000409024C810E00708132484
:101AA0000902000101000209241308071010383C44
:101AB000383838F8387838F878F878F0800000004E
:101AC00000000000010101030D1A352A353F1010F6
:101AD00000382828EF01EF2828B880E020E0808037
:101AE000E0B0F0D0FF70FFD0F073E2BEE07EE2C362
:101AF000101000FF01FD05F555555555545450F093
:101B00000000000F003F00FFD5D5D5FD0575351746
:101B100000001010C02020107CC28109191A6936FB
:101B2000889090600031494945320A080808050547
:101B3000091209061010F0E83D9655D6AD7E7DAE2F
:101B4000D556953EE8F0511BC63D6CD892D090D04A
:101B5000986C3DC61B51101000008040A0A2D4F428
:101B6000E8F4726562C08000BC50AF5FBF3FBF3910
:101B7000B036B93DBD5EAFF010100008F4FA3D3A42
:101B8000C2FDFE1E1DFA44BEC28000163971727479
:101B9000FBDBDBDAED6E7733171F1010000000F26D
:101BA0000D52A5369428289060800000000078C56A
:101BB0001A00FD3B3BF900D3E03708000F0F80C04F
:101BC000C07E777EF8C0C0C08080E0F08000010158
:101BD0003F773F0F01010100000307001010804014
:101BE00050D08040F95C5DF94080D05040800001C9
:101BF00001216F21272C2C27216F210101001010BA
:101C000000000018A464220A020106384080000087
:101C1000000000000F907F84600004FF100F0000A0
:101C20001010008070086432B9D9CD4DCD4DC94235
:101C30001CE0C0CF50A74E181DB73326272607A695
:101C400051CE1010040A010A10208040E0E0C000CC
:101C50000000000000000000000307073E7DF3F3D2
:101C6000BFDF6E3C0F0F0EE5F6F5E6CD9E3D9ECD37
:101C7000E6F5F6E50E3853375733593C5E3C593399
:101C8000573753380F0FFCC299BDBD99C3FFC39995
:101C9000BDBD99C2FC1F214C5E5E4C617F614C5EF4
:101CA0005E4C211F0F0FE0F81C02000E9FFF9F0EDD
:101CB00000021CF8E0030F1E3C3C7E7F7F7F7E3CD1
:101CC0003C1E0F030F0F0000F008040706F506077F
:101CD0000408F0C000000007081070503051721066
:101CE000080701000F0FE0180402020181FF8101C3
:101CF00002020418E0030C18242241407F404122D4
:101D000024180C030F0F00000000003049868031BA
:101D10004E408000007070707070707070707171E3
:101D2000027401760F0F2000408218E080FD80E0F1
:101D300018824000100000003F7F5F5555555F7FBF
:101D40003F0000000F0F00000F1123C2230123C228
:101D500023110F0000006058444A41484148414A5D
:101D6000445860000F0F0000002050DE434143DE66
:101D7000502000000000406058464140404041462D
:101D8000586040000F0F25293325293F0101013FED
:101D90002925332925524A66524A7E4040407E4AD0
:101DA00052664A520F0F80A0A4E8F0FEF8FFF8FE3A
:101DB000F0E8A4A0800002120B073F0F7F0F3F073F
:101DC0000B1202000F0FFCFDFC01C1E1F1F1F1E18A
:101DD000C101FCFDFC1F5F1F404143474747434192
:101DE000401F5F1F0F0FE11A25F21592F522F51221
:101DF00095F2251AE11F2040112121292C292121AA
:101E00001140201F0F0F3878F8F878B8D8E8B0D80C
:101E10007CB61B0F0718186C761F0D061B3D7E7FC6
:101E20007F0000000F0FE0F0F8FCFC04F8840404CD
:101E30001404F8000007013F7F674702073F7F7FD8
:101E4000400F58700F0FFF1FDFDFEFF7FB01FFDFC1
:101E500037ED1BF70F7F7C7D7D7B776F407F7D7635
:101E60005B6C77780F0F55AA0178FCCE8686CEFC86
:101E70007801AA55AA552A411A58197F7F19581A6C
:101E8000412A552A0F0F2A95CAD5CAD5CA8560712D
:101E9000399D4F873F1E3F71606060713F1F005545
:101EA0002A552A550F0F0000FE013D352D352D35E1
:101EB0003D01FE500000001F202267327030622179
:101EC000603F55000F0F003040202000077CF0DFFE
:101ED0007040000000000E3F0E004C4F4113234B9A
:101EE000404E10000F0F2103870E1E3D7DFBFBF7B8
:101EF00077AFEF0703220048002200480021004886
:101F0000002100480F0F307878405E5757575757D9
:101F10005E407878300000031F2041515451412029
:101F20001F0300000F0F0F88E1F2FACA4A7A7A32D3
:101F3000228A09080720630F172F1E2C1C2C180952
:101F4000222908610F0F02040644743E6577259E1E
:101F50008486840200441A561A441850005D1D59A4
:101F6000195D1D400F0F80A0A8A8002630873026DD
:101F700000A8A8A08000020A2A2A00465E46002A7D
:101F80002A0A02000E0EE0A0A2A5A9AAB4AAA9A935
:101F9000A5A2A0E0003F202A242A242A242A2420C3
:101FA0003F000E0E0000FC02F9F9F9F9F9F902FC04
:101FB000000000000F1023232B2B2323100F000001
:101FC0000E0E0F31C10912A244A4089020408000D7
:101FD00000000001020408121112080413200E0E62
:101FE00000E110090805040504090811E0012F0F9C
:101FF0002F00200020002000200F2F0F0E0E02F1D6
:10200000F2F1F2F11211121112F1E201201121117B
:10201000211121112111211120100E0EF000F8FCC8
:10202000FCFEFDFDFDFDFEFCFCF80708131717176D
:1020300017171717171707030E0EFCFEAFABABAB46
:10204000BBABAFEBABAFFEFC010307063E1E0E07BA
:102050000606060703010E0E70303030F7FFF7F06A
:10206000F0F080C0C0C03F3E3E3E3F2303233F3FD1
:10207000000101010E0EFC3E2A3F2AAA2E2EBEBEF2
:10208000BF3E3EFC1F202020292F2820282A2F2059
:10209000201F0E0EFF01017D555D55755D557D01BB
:1020A00001FF0F10203F21213F3F3F3F3F20203FB6
:1020B0000E0E00000088542A5D5D5D2A54880000E1
:1020C000000E11202020202020202020110E0E0E96
:1020D00084C46232121E32E22221A1513810112230
:1020E0003C24243C26230201000000000E0EE018D0
:1020F000040202010D8D81C6FEFCF8E00106081005
:102100001E3F33333F1F1F0F07010E0EFF9B915BD6
:102110003F9FCFE7F3FB7B7B7B330C1E1E1E1F0F05
:102120002733393C3E3F3F3F0E0E18F81C0C4E261D
:102130000707264E0C1CF818000708103C3A3D3DD6
:102140003A3C100807000E0EE884F281E284C89041
:10215000A884E284C8900000060F0F0F1F1F1F3FC6
:102160003D3C30000E0E4060F0F8FC7E3F3F7EFCB0
:10217000F8F0604000003F3F1F202020201F3F3F1D
:1021800000000E0E00000080601B01011B6080003B
:1021900000000006091016262E2E2616100906002D
:1021A0000E0EF0082804E20A8A422428488808F023
:1021B0000F1010101F10111214141211100F0E0E08
:1021C000F0F1C2C4C8D0C0C0D0C8C4C2F1F003236B
:1021D0001008040200000204081023030E0EE01889
:1021E0000422F20105E51112E20418E001060812CA
:1021F000132228292212110806010E0EF9F2E40911
:10220000E337171737E309E4F2F927130924313BC1
:102210003A3A3B31240913270E0E99BDBD99C39953
:10222000BDBD99C399BDBD990C1E1E0C210C1E1E6F
:102230000C210C1E1E0C0E0E00EE8000E0988F8FFD
:1022400098E00080EE000327150007072A2A0707F9
:10225000001527030E0E708874DAAA4A94140A0A2D
:102260008A74887000000102050B16150A05020128
:1022700000000D0DFF01F96DE5BDE56DF901FFAA47
:1022800054070C150C150C150C150C170A150D0D13
:102290000E1195514E2098C48408000000000001E2
:1022A000020000000103070E1C180D0DE7B0D4E278
:1022B00001E010C82828C810E0070F1D18181B1CC3
:1022C0001918191C1A110D0D0E03230981C8E0708D
:1022D0003E9E181A000803030F0F01001014101877
:1022E0000E070D0D0FFFFFFFFB8BC0C0C0C08000AD
:1022F0000012131B13131313131B131308040D0DD8
:10230000AAFA04F299FD0DFD19F204FAAA0A1F00B7
:102310001F121F101F101F001F0A0D0D78401EBF37
:102320002DA92FA92DBF1E407807010C07101F00F3
:102330001F10070C01070D0DFF00808000F8F8004A
:10234000FFFF00E0E01F10171710171710171710E6
:1023500017170D0DFFBB1B5B1BBBBBB1B5B1BBBBE7
:10236000FF1F1B1B1B1B1B1B1115111B1B1F0D0D07
:10237000108888840402610C81424448900F06064C
:10238000060F001B0007030303070D0DFC02B1B588
:1023900005B5B102FC0000B0B01F000D0D000D0D21
:1023A000001F020117170D0D008040208E1FFF1F18
:1023B0008E2040800001020409131615161309042B
:1023C00002010D0DC00060797A6C7C6C7A79600036
:1023D000C01F001F001F001F001F001F001F0D0D4A
:1023E000FC1E0F4F6F6F074767670F0EFC07081043
:1023F000101214141515141008070D0DAF018141AA
:102400002091482590492501AF1E10141201140295
:1024100011001010101E0D0DFFAAFF42524A524229
:102420004242FFAAFF1F0A1F08080A090A08081FDC
:102430000A1F0D0DE0A0100EE1F5F5F5E10E10A05C
:10244000E00000010E10151515100E0100000D0D15
:10245000304A48B6797979B6484A308000000100A0
:10246000010202020518060F0F070D0D1C3C78F142
:1024700042ECECEC42F1783C1C1C1E0F07020F1FD3
:102480000F02070B161C0D0D001010303037FD37F2
:1024900030301010000306060C0C181F180C0C0628
:1024A00006030D0D0301B0B81C0C000C1CB8B001E4
:1024B00003181001030706000607030110180D0D8D
:1024C000000F11E302D341D302E3110F0008080803
:1024D00007101F181F10070808080D0D00F0087CD2
:1024E00002297D69B90142BC000102041A001F07DC
:1024F000071F0003180F0D0D3A79FCC1F04D504D28
:10250000F0C1FC793A1207070F03050505030F0711
:1025100007120D0D09BDA1D975E5FDE5F5D9A1BDE0
:1025200009121710131516151717131017120C0C84
:102530001E67860810204080000000000000010295
:1025400002040408090E0E040C0C124A29A5955524
:102550005595A5294A1200000104020A0A02040145
:1025600000000C0CF8663169E9B1A1E1612166F85F
:10257000030F0A0F030202030F0A0F030C0C0609D4
:10258000D12204080404629209070C0B080402011A
:1025900001020C0403010C0C0804C2E1B21408028D
:1025A00081228408000400010307060E0C0C0808B1
:1025B0000C0C3FCFC7333939C6C6CC3830C0000009
:1025C0000103060609090C0E0F0F0C0CFF01550143
:1025D0005501FF00545204F80F00050005000F00DC
:1025E0000505000F0C0C000000A0530F0F53A000B6
:1025F0000000000003060E0E0E0E060300000C0C79
:1026000022A4889B1B4824A2A0A020A005040204A9
:1026100009090504020405040C0C04DE50FCFAFE52
:10262000FEFAFC50DE04010300000101010100007C
:1026300003010C0CFB036461218D1D41616403FBEC
:102640000D0C0208080B0B0808020C0D0C0C030201
:102650007F6B556BD5EB556B557F0000060F0F0652
:102660000000060F0F060C0CE0F8FFE6E43C3CE42B
:10267000E6FFF8E001000B070B01010B070B00015F
:102680000C0C541494D4C0FF054555505454050403
:10269000010303010405050505050C0CAA10C3F48C
:1026A0003EFAFFFA3EF4C3080A00070700030703D7
:1026B000000707000C0CF80432393D3DC1C1C1C20E
:1026C00004F80102040808080B0B090402010C0CB1
:1026D000008044DFFFDF4440401CFC1C0100000F71
:1026E0000B030E0800000F000C0CFF01555555554B
:1026F00001FF040408F00D0D010D0D0107010D0D82
:1027000001070C0C0C006D6D000C0C804C4C202C47
:1027100000000B0B000C0300000000000C0CAA00D2
:102720003C7E66FFFF66EECC00550A000307060FED
:102730000F06070300050C0C01FE06FA9A6A6A9A56
:10274000FA06FE0108070605050505050506070842
:102750000C0CB8BCBE80FF80B8BE80FF8080030434
:10276000080A080A080A080402010C0C60F0F0606C
:1027700006EFEF0660F0F0600000080C0E0F0F0E81
:102780000C0800000C0C009F90FC9A9C9AFC909FF7
:1027900000AA00070701030703010707000A0C0C42
:1027A00001CC9E3E7EFCF8F2E6CE9C0108030707B2
:1027B00006040103070703080B0B30C02E11151187
:1027C00015112EC03000050604060006040605009B
:1027D0000B0B0007FFFFFFFF77777707070007075F
:1027E00007070707000000000B0BC0E0F0F0F0E463
:1027F000C2092412090103070707030100000000B2
:102800000B0B1C22414141221C000808F80000006B
:1028100007040404040404070B0BF8FFFECCC8787B
:10282000C8CCFEFFF80103070505050505070301F0
:102830000B0B2030F83C3EFF3E3CF83020000007F8
:1028400004040707070700000B0B00F40A11151515
:1028500011110AF40000010204040404040201003E
:102860000B0B0810102126F820207050700000007B
:1028700000070507000000000B0BFF01A10FA90ACC
:10288000FC0055555507040404040407000505051C
:102890000B0B7777077770777707777777070707D7
:1028A00007000707070707070B0B0007CFE83EFEE7
:1028B000C80F070000040005010003030004000422
:1028C0000B0BBF81A1A1212FE009090BF80704041C
:1028D00007000203000101010B0BD54000FF8181BD
:1028E00081818181FF0704040406000400040004C0
:1028F0000B0B003D60FD80FD80FD603D0000000091
:1029000004050705040000000B0B1C3E7C70FEFF55
:10291000FE80FCFEFC000000000707070303010027
:102920000B0B008040281C987CFE5F0F07070404F7
:1029300002010000000000000B0B1F2141913972C1
:10294000E44810A040000000000102040201000061
:102950000B0BF804525204F804525204F807020117
:1029600001020702010102070B0B7CFEFFC3C37FBC
:10297000C3C3FFFE7C000007070107010707000033
:102980000B0B00EEFAEE20FE04F8002020000701F9
:1029900007000301000000000B0B607864E2627E18
:1029A0006000FF00000207020002070200030202AB
:1029B0000B0BFF01DD5D5DDDDDDDDD01FF070407E4
:1029C00004040707070704070B0BF0F89C0E03002D
:1029D000FF01FD01FF0103030606040102040201D9
:1029E0000B0B40605048FE01FE4850604000000460
:1029F00006050405060400000B0BE010FA6C78785D
:102A0000786CFA10E00000000101000101000000F4
:102A10000A0A007CFDFEFDFE7C0038000202020274
:102A20000202020200000A0A0080C080387DEEBC6B
:102A3000EE79020301030302030100000A0A080CF5
:102A400014FEF4E0C000E0100000020303030302E0
:102A500000000A0A1C3870F8FEFBF9F9FBFE0000C2
:102A600000010303030303010A0A204080FCC0FFA6
:102A7000E0FFC0FC000000010303030303010A0A96
:102A8000484472C1F24448427F42000000010303FF
:102A9000020000000A0A00FC0209BD898102FC0054
:102AA000000302020202020203000A0A78843231A1
:102AB000FDFD3132847800000102020202010000B3
:102AC0000A0A00FF555D55F735BDB5BF0003030386
:102AD0000303000301000A0A060F0F3640AA92AA58
:102AE0004438000000000000030000000A0A000053
:102AF0000E1FF9F99F8E0000000000000303020280
:102B000000000A0AF1FACCCC7C7CCCCCFAF10301AF
:102B100003010303010301030A0A784651C6613E1B
:102B2000080808F8000203030101010203030A0A6E
:102B30001018FC1EFF9F9EFC1810000003020303E8
:102B4000030300000A0AC1673962C4386C446C3858
:102B5000010302030100000000000A0A0000FFA9AF
:102B6000F9A9F9A9FF000000030203020302030010
:102B70000A0AE070B07EF2F272B67CF00001030146
:102B80000000010301000A0A01FF45FC8249458952
:102B900002FC000300000000000001010A0A40607E
:102BA00070FC3F3FFC706040000002000303000225
:102BB00000000A0A78FCFE8F05050D1B961C00001C
:102BC00001030302020100000A0AFCB63331FFFFD1
:102BD0003133B6FC000103020303020301000A0AB9
:102BE0000E1F5F9F0EC0242821C2010200000001B9
:102BF000020202010A0AF03CEE3BBFBF3BEE3CF092
:102C0000000000020303020000000A0A90DEDE9EBC
:102C10003E9ED4D494240103030100010303010068
:102C20000A0A0C1E3F3F9E0C40902040000000000E
:102C30000001020001020909000F10A7CFA7100F21
:102C4000000000010101010100000909048E5F0E6E
:102C500044E0F4E241010000000000010000090925
:102C60000C5ED3803F009FDE5C000000010101018B
:102C700000000909004CDEDFDFF7F6640000000009
:102C80000101010000000909806018E6F3E6186000
:102C900080010100000100000101090900DFB6A464
:102CA000B6DF6060F80101000000010100010909C0
:102CB00082FD82BABABA827F820001000000000061
:102CC0000100090907091EBFFFBF1E090700000117
:102CD0000101010100000909C02070F86C3E1B0EC3
:102CE00004010101000000000000090938FE13D3AF
:102CF0001FD313FE38000101010101010100090980
:102D0000CCEEA6F7B7F7A6EECC010100010001005A
:102D1000010109097CDA93333B3393DA7C0000012B
:102D200001010101000009097CF6F3F1FF1F9FDE9C
:102D30007C000001010101010000090910D6D60044
:102D4000C700D6D6100000000001000000000909ED
:102D5000008040201C1C1E07030100000000000032
:102D6000000009090E1B15377AF0E0C000000000D2
:102D700000000001010109097C9E33333F33339E7B
:102D80007C00000101010101000009090060587682
:102D9000FD6E7860000101010101010101010909D5
:102DA00010FE9282D78292FE100000000001000007
:102DB00000000909C62929C610C62929C600010133
:102DC0000000000101000909C22E2ACE18C82A2CD1
:102DD000C800010100000001010009093CC2094DC1
:102DE000414D09C23C000001010101010000090937
:102DF0001E3F7FFFFEDF6F3B1E0000000001000052
:102E0000000009097EF1F171DF71F1F17E0001012D
:102E100000010001010009094E5959899F8959593A
:102E20004E010101000000010101080818664E8BE7
:102E3000AF4E6E1808080F31454952225C800808D1
:102E4000FF7E3C18FC5C7C1C0808060F2FA6904CEB
:102E5000201808081E3360C2878ADC4808083C7EB8
:102E6000F3E1C0C460310808003872E1E172380053
:102E70000808001E3BF3F33B1E000808E0C0983C26
:102E80003C19030708083C02B9BDBD9D403C080839
:102E90003C24E78181E7243C08081E3F7FFEDE6F6B
:102EA000331E0808060979BEBE7909060808DB5AF0
:102EB0001824242424180808619689A8A8899661F2
:102EC0000808C3990042420099C30808815A3C6629
:102ED000663C5A810808C098244242241903080815
:102EE00010189CFFFF9C181008081008E43F3FE4EE
:102EF000081008083C638AA0A08A631C080803071E
:102F00000E1C1820C0C0080800708DB1B18D700073
:102F1000080860C0D8DCDCD8C0600808387CFCFD3C
:102F20007BBC7C3807073D78607A707D38070708DE
:102F30001C2263221C080707080C7E7F7E0C0807F2
:102F4000071E79396F39791E07070E1F3F7E3F1F15
:102F50000E07071F1D77535F447C07071C3E5F5F0A
:102F60006F321C0707071527087254700707775D33
:102F70007722775D770707705C7603765C700707CA
:102F8000080C0E3F4E2C08070718045F1D5F04183D
:102F900007070822004D10220807077F6959695961
:102FA000697F0707397F39383F613F07076B410861
:102FB0005D08416B07071C14774177141C070777DE
:102FC0005D7505755D77070773517C141F456707AD
:102FD0000704487A1F7A480407071E785C1C7F4F55
:102FE0000607070036006300360007076363000822
:102FF00000636307071C22554955221C07071C2242
:10300000555155221C060610381C0D010706060CEA
:10301000123F213F0C0606041E27271E0406062C1D
:103020003E0F0F3E2C0606071D270A122406060F28
:1030300009392F243C06063F002D2D003F060600CF
:1030400002253D020006060F3C0C3F0F0606060156
:103050001E3A3A1E0106062B0B3807343506061BAE
:103060000F063B190806061233000033120606331A
:1030700033000033330606180C2633190C060602FB
:10308000263F3F260206060324383824030606217D
:10309000120C0C122106060C002D2D000C06062128
:1030A0001E12121E2106063C220909223C06063F7A
:1030B000090F0F0F0F06063F0F0D0F311106060CFB
:1030C000122121120C06060C1E3F3F1E0C05051B8B
:1030D0001B041B1B05050E1B1F1D0E050503061FEC
:1030E000060305051C1516151C05050C181E1E04E7
:1030F000050500121D12000505021E020E1205052F
:103100001E1E1E0A0E0505081A1F1A080505150EB3
:103110001B0E15050512191E19120505001F0D1F9E
:1031200000050504061F16040505011E0B1E0105FA
:1031300005100E1B0E1005050E1F1B110005051EA8
:103140000C0F1E0605051E181D1E1C0505041E1766
:103150001E040505160D0F0D160505061D1F1D067F
:1031600005051E071F071E05051C0E070E1C05057D
:10317000070F1E0F0705051F1111111FD5F08D1424
:10318000A1C881CFD9F1AF200003081F051F1F156B
:103190001B1F11111F110E1F15111F05011F111DDE
:1031A0001F041F001F0010101F1F041B1F10101FE3
:1031B000061F1F011F1F111F1F05071F311F1F059E
:1031C0001B17151D011F011F101F0F100F1F0C1FB4
:1031D0001B041B071C071915130C121E1F120C1EB3
:1031E00012120C121F0C1A14041F052E2A1E1F0285
:1031F0001C001D00201D001F041A011F001E041EBC
:103200001E021E1E121E3E120C0C123E1E02061440
:10321000120A020F121E101E0E100E1E081E1A0495
:103220001A2E281E1A12161F111F00001F1D151717
:1032300011151F07041F17151D1F151D01011F1F45
:10324000151F17151F001700001000040404040EBA
:10325000040229060A000005051F1F0F07030505C4
:10326000000E060200631800FC02020202020202C3
:10327000828282820202020202020202020202022E
:10328000020202020202020202020202020202021E
:10329000020202020202828282828202020202028E
:1032A00002020202020202020202020202020202FE
:1032B00002020202020202020282828282828202EE
:1032C0000202020202020202FC0000FF00000000F3
:1032D00000000080FFFF8080E0007CFE92929E5CF8
:1032E0000064F69292FE7C803E7EC0C07E3E007CF2
:1032F000FE92929E5C0000007FFF808088F979003A
:1033000064F69292FE7C8002FEFE02FEFC02FEFC4F
:10331000007CFE92929E5C00000000030300B8B89F
:10332000080F070000000000000000FF00003F4001
:10333000404040404040404040404040404040408D
:10334000404040404040404040404040404040407D
:10335000404040404040404040404040404040406D
:10336000404040404040404040404040404040405D
:10337000404040404040404040404040404040404D
:1033800040404040404040404040404040403F007E
:10339000FEFFFFFFFFFFFFFFFFFFFFFFFFFFFFFF3E
:1033A000FFFFFFFFFFFFFFFFFFFFFFFFFFFFFFFF2D
:1033B000FFFFFFFFFFFFFFFFFFFFFFFFFFFFFFFF1D
:1033C000FFFFFFFFFFFFFFFFFFFFFFFFFFFFFFFF0D
:1033D000FFFFFFFFFFFFFFFFFFFFFFFFFFFFFFFFFD
:1033E000FFFFFFFFFFFFFFFFFFFFFFFFFFFFFFFFED
:1033F000FFFFFEFFFFFFFFFFFFFFFFFFFFFFFFFFDE
:10340000FFFFFFFFFFFFFFFFFFFFFFFFFFFFFFFFCC
:10341000FFFFFFFFFFFFFFFFFFFFFFFFFFFFFFFFBC
:10342000FFFFFFFFFFFFFFFFFFFFFFFFFFFFFFFFAC
:10343000FFFFFFFFFFFFFFFFFFFFFFFFFFFFFFFF9C
:10344000FFFFFFFFFFFFFFFFFFFFFFFFFFFFFFFF8C
:10345000FFFFFFFFFFFF7FFFFFFFFFFFFFFFFFFFFC
:10346000FFFFFFFFFFFFFFFFFFFFFFFFFFFFFFFF6C
:10347000FFFFFFFFFFFFFFFFFFFFFFFFFFFFFFFF5C
:10348000FFFFFFFFFFFFFFFFFFFFFFFFFFFFFFFF4C
:10349000FFFFFFFFFFFFFFFFFFFFFFFFFFFFFFFF3C
:1034A000FFFFFFFFFFFFFFFFFFFFFFFFFFFFFFFF2C
:1034B000FFFFFFFFFFFFFFFF7F631800FC02020218
:1034C00082820202028282020202020202028282DC
:1034D000828202020282828282020202020202824C
:1034E000828282020202020202020202020202023C
:1034F00002020202020202020202020202828202AC
:10350000020202828202020202F20A0A0A0A0A0A7B
:103510000A0A0A0A0A0A0A0A0A0AF202FC0000FF58
:103520000000001FFFE01CE0FF1F007CFE92929E47
:103530001C8080FFFF8080008080FFFF8080000073
:103540000000FFFF80C17F3E007CFE8282FE7C0087
:10355000FEFE0202FEFC007CFE92929E1C00000712
:10356000DFDF07000007DFDF07000000FF000000CB
:1035700000000000000000000000000000FF00FF4D
:1035800000003F40404040404040404040404040BC
:10359000404040404040404040404040404040402B
:1035A000404040404040404040404040404040401B
:1035B000404040404040404040404040404040400B
:1035C0004040404040404040404040404040404FEC
:1035D00050505050505050505050505050505050EB
:1035E0004F403F000D190619FF18F818F118EA1896
:1035F000E318DC18D518CE18C718C018B918B218B7
:10360000AB18A4189D1896188F18881881187A1866
:1036100073186C1865185D1855184D1845183D1825
:1036200035182D1825181D1815180D180518FD1713
:10363000F517ED17E517DD17D517CD17C517BD170A
:10364000B517AD17A5179D1794178B178217791704
:10365000701767175E1755174C1743173A1731172E
:1036600028171F1716170D170417FB16F216E91661
:10367000E016D716CE16C516BC16B216A8169E169C
:1036800094168A16801676166C16621658164E1602
:1036900044163A16301626161C1612160816FE1573
:1036A000F415EA15E015D615CC15C215AE159A1508
:1036B000861572155E154A15361522150E15FA1463
:1036C000E614D214BE14AA14961482146E145A145A
:1036D000461432141E140A14F613E213CE13B81350
:1036E000A2138C13761360134A1334131E1308139A
:1036F000F212DC12C612B0129A1284126E12581212
:1037000042122C1216120012EA11D411BE11A81185
:103710009011781160114811301118110011E81042
:10372000D010B810A0108810701058104010281039
:103730001010F80FE00FC80FB00F980F800F680F30
:10374000500F360F1C0F020FE80ECE0EB40E9A0E5D
:10375000800E660E4C0E320E180EFE0DE40DCA0DD4
:10376000B00D960D7C0D620D480D2E0D140DFA0C4A
:10377000E00CC60CAA0C8E0C720C560C3A0C1E0CEB
:10378000020CE60BCA0BAE0B920B760B5A0B3E0BE0
:10379000220B060BEA0ACE0AB20A960A7A0A5E0AD7
:1037A000420A260A0A0AEC09CE09B00992097409EC
:1037B000560938091A09FC08DE08C008A20884085E
:1037C000660848082A080C08EE07D007B2079407D5
:1037D000760758073A071C07FC06DC06BC069C0661
:1037E0007C065C063C061C06FC05DC05BC059C054D
:1037F0007C055C053C051C05FC04DC04BC049C0445
:103800007C045C043C041C04FC03DA03B803960348
:103810007403540332031003EE02CC02AA0288029E
:103820006602440222020002DE01BC019A01780114
:10383000560134011201F000CE00AC0005050A1556
:103840000A150A070301030703050201070304061B
:1038500007060502040810C0E030303030E0C00038
:1038600000006C6E0703011616FF01010101010142
:10387000010101010101010101010101FFAA54FF40
:103880000000000000000000000000000000000038
:103890000000FFAA550F18281828182818281828DB
:1038A00018281828182818281F2A158010808080AA
:1038B00080808080808080800080008040A0A0A0E8
:1038C000A0A0A0A0A0A0A0A0A0A0A0A0A0A0A0A0F8
:1038D000A0A0A0A0A0A0A0A0A0A0A0A0A0A0A0A0E8
:1038E000A0A0A0A0A0A0A0A0A0A0A0A0A0A0A0A0D8
:1038F000A0A0A0A0A0A0A0A0A0A0A0A0A0A0A0A0C8
:10390000A0A0A0A0A0A0A0A0A0A0A0A0A0A0A0A0B7
:10391000A0A0A0A0A0A0A0A0A0A0A0A0A0A0408027
:1039200000800080808080808080808080FFFFFF1A
:10393000FFFFFFFFFFFF7FAA5500FF00FFFFB9B0A9
:10394000B286C6FF8080B6B6BEBEFF8080BFBFBF56
:10395000BFFF8080B6B6BEBEFFC180BEBEBEDDFF6B
:10396000FEFE8080FEFEE7E7FFFF9FE3ECE0838F33
:10397000FFFFE7E7FFFF8080F6F0F9FFC080BFBFE1
:10398000BFC0FF9E86A2B0BCFF9E86A2B0BCFF80D7
:1039900080BFBFBFBFFF8080B6B6BEBEFFFFFF00C7
:1039A000FF0055AA7FFFFFFFFFFFFFFFFF8010FF13
:1039B000FFFFFFFFFFFF00FF00003E0A0E003C205C
:1039C0003C0034242C0034242C00023E0000183427
:1039D000280028241400000000000000000000005F
:1039E00000000000000000000000000000000000D7
:1039F00000000000000000000000000000000000C7
:103A00000000FF00000000000000000000000000B7
:103A10000000000000000000002210080422000046
:103A2000000000000000FF00FFFFFFFFFFFFFF2F6F
:103A30002F2F2F2F2F2F2F2E2D2D2D2D2D2D2D2DA7
:103A40002D2D2D2D2D2D2D2D2D2D2D2D2D2D2D2DA6
:103A50002D2D2D2D2D2D2D2D2D2D2D2D2D2D2D2D96
:103A60002D2D2D2D2D2D2D2D2D2D2D2D2D2D2D2D86
:103A70002D2D2D2D2D2D2D2D2D2D2D2D2D2D2D2D76
:103A80002D2D2C2D2D2D2D2D2D2D2D2D2D2D2D2D67
:103A90002D2D2D2D2D2D2D2D2D2D2D2D2D2D2D2D56
:103AA0002D2D2D2D2D2D2E2F2F2F2F2F2F2F2F2141
:103AB000080F0F08080006090B06000E03030E008E
:103AC0000F090F06000F0F000F02030F000E0F0962
:103AD0000D000E10BEBDBEBDBEBDBEBDBEBDBEBDD9
:103AE000BE00000400040004000400040004000000
:103AF0004E080F0D0702000F050F0A000F0D0900F9
:103B0000020B0D00020B0D00000000000F0D07025C
:103B1000000F0F0808000E03030E00030E0E030033
:103B2000000006090B06000F02030F000000000151
:103B30000F0F010E03030E000F0D0702000F0D09FA
:103B40000E10A7C7A7C7A7C7A7C7A7C7A7C7A7001C
:103B500007070707070707070707070707002408DE
:103B60000E1F1F1F0E0000000000000000000000DC
:103B70001F0E04000000000000000000040E1F00E3
:103B8000040E1F006210010101010100010001008B
:103B9000000001010001010001010100010100011B
:103BA000000001010001890029010001FF01010954
:103BB00001A90181010901FF01010101A901810997
:103BC0000101FF01018101890129018901FF010131
:103BD0000901A90181010901FF01010101A9018177
:103BE000090101FF010101A90008080808000800F7
:103BF0000800000008080008080008080800080875
:103C000000080000080800080A000A080008FF0869
:103C1000080A080A080A080A08FF08080808080825
:103C20000A080A08FF08080A080A080A080A08FF1A
:103C300008080A080A080A080A08FF080808080805
:103C4000080A080A08FF080A0808610EFFFFFFFFBC
:103C5000E7C3C3E7FFFF3C3C0000CEDFDFDFDFCE82
:103C6000000000FCFCFFFF030303030F0F0C0C001C
:103C700000F8F8F8F830303030F0F0C0C00000C084
:103C8000C0F0F030303030F0F0C0C00000C0C0F004
:103C9000F030303030303030300000C0C0F0F03024
:103CA000303030303030300000000000003F3F3F07
:103CB0003F00000000000000000000303F3F3F3F99
:103CC0003F3000000F0F3F3F303030303C3C0C0C99
:103CD00000003F3F3F3F00000000000000000000E8
:103CE0000F0F3F3F303030303F3F0F0F000030307C
:103CF0003333333333333F3F0C0C00003030333336
:103D0000333333333F3F0C0C000000381808611088
:103D100010105010FF10501050101010101010FF05
:103D200010501050105010501010FF105010501024
:103D30005010501010FF1050105010101010101094
:103D4000FF10501050105010501010FF1000105065
:103D50000050100010100000100010100010101083
:103D600000101000101000000010001000101010C3
:103D70001095808080FF80809081809580808080F9
:103D8000FF80908081809580908080FF80918094DA
:103D9000809180818080FF8080908180958080806C
:103DA00080FF80908081809580908080FF8000805F
:103DB00094009180008080000080008080008080DE
:103DC0008000808000808000000080008000808073
:103DD000808075316E3167316031593152314B31EC
:103DE00044313D3136312F31283121311A311331EF
:103DF0000C310531FE30F730F030E930E230DB30A5
:103E0000D430CD30C530BD30B530AD30A5309D306B
:103E100095308D3085307D3075306D3065305D305A
:103E200055304D3045303D3035302D3025301D304A
:103E300015300D300530FC2FF32FEA2FE12FD82F4E
:103E4000CF2FC62FBD2FB42FAB2FA22F992F902F7E
:103E5000872F7E2F752F6C2F632F5A2F512F482FAE
:103E60003F2F362F2D2F242F1A2F102F062FFC2EE9
:103E7000F22EE82EDE2ED42ECA2EC02EB62EAC2E5A
:103E8000A22E982E8E2E842E7A2E702E662E5C2ECA
:103E9000522E482E3E2E342E2A2E162E022EEE2D77
:103EA000DA2DC62DB22D9E2D8A2D762D622D4E2D0A
:103EB0003A2D262D122DFE2CEA2CD62CC22CAE2CFF
:103EC0009A2C862C722C5E2C4A2C362C202C0A2CF8
:103ED000F42BDE2BC82BB22B9C2B862B702B5A2B52
:103EE000442B2E2B182B022BEC2AD62AC02AAA2AC6
:103EF000942A7E2A682A522A3C2A262A102AF8293D
:103F0000E029C829B0299829802968295029382909
:103F100020290829F028D828C028A82890287828FF
:103F200060284828302818280028E827D027B827F4
:103F30009E2784276A27502736271C270227E82632
:103F4000CE26B4269A26802666264C2632261826A9
:103F5000FE25E425CA25B02596257C256225482521
:103F60002E251225F624DA24BE24A22486246A24CF
:103F70004E2432241624FA23DE23C223A6238A23C6
:103F80006E23522336231A23FE22E222C622AA22BD
:103F90008E227222542236221822FA21DC21BE21DE
:103FA000A02182216421462128210A21EC20CE2053
:103FB000B02092207420562038201A20FC1FDE1FCB
:103FC000C01FA21F841F641F441F241F041FE41E60
:103FD000C41EA41E841E641E441E241E041EE41D52
:103FE000C41DA41D841D641D441D241D041DE41C4A
:103FF000C41CA41C841C641C421C201CFE1BDC1B57
:10400000BC1B9A1B781B561B341B121BF01ACE1AB2
:10401000AC1A8A1A681A461A241A021AE019BE192A
:104020009C197A195819361914190102040810201C
:104030004080C03111241FBECFEFDAE0DEBFCDBF1C
:1040400011E0A0E0B1E0E6E0FEE602C005900D92CE
:10405000A03CB107D9F727E0A0ECB1E001C01D9268
:10406000AB30B207E1F710E2CAE1D0E204C0219719
:10407000FE010E94D135C931D107C9F70E9417321C
:104080000C9401370C94000080389105B0F4603432
:10409000710598F4EAE2F0E490E1969FD001A078EF
:1040A0001124A80F6770E60FF11D9491A95FBC4F12
:1040B000442321F08C91982B9C93089590958C919A
:1040C0009823FACFEF92FF920F931F93CF93DF9332
:1040D0007B018A01020F111DEA0157FF02C0D0E0E7
:1040E000C0E0C8010134110514F080E490E0C81765
:1040F000D9073CF441E0BE01C7010E94442021964B
:10410000F0CFDF91CF911F910F91FF90EF90089525
:10411000480F592F511D1416150684F58038910546
:104120006CF597FF02C090E080E04138510514F033
:1041300040E850E0481BFB01E770FF2721E001C089
:10414000220FEA95EAF777FF02C0695F7F4FFB0114
:1041500033E0F595E7953A95E1F7F695FE2FEE27D2
:10416000F795E795E80FF91FE95FFC4F415030F0F4
:104170008191DF011197822B8C93F8CF0895AF9234
:10418000BF92CF92DF92EF92FF920F931F93CF9344
:10419000DF936C017B018B01040F151FEB015E01A6
:1041A000AE18BF08C017D10759F06991D601ED913B
:1041B000FC910190F081E02DC6010995892B79F7DA
:1041C000C501DF91CF911F910F91FF90EF90DF908C
:1041D000CF90BF90AF9008953FB7F89480910303BC
:1041E00090910403A0910503B091060326B5A89B06
:1041F00005C02F3F19F00196A11DB11D3FBFBA2F79
:10420000A92F982F8827BC01CD01620F711D811D38
:10421000911D42E0660F771F881F991F4A95D1F7BD
:1042200008952F923F924F925F926F927F928F925A
:104230009F92AF92BF92CF92DF92EF92FF920F9335
:104240001F93CF93DF9300D000D01F92CDB7DEB77E
:10425000FB01BC01600F711D7A8369831616170676
:104260000CF0FCC0BF016E0D711D161617060CF088
:10427000F5C0E034F1050CF0F1C04115510509F429
:10428000EDC07E2F7770672EDF01F7FD179613E0E4
:10429000B595A7951A95E1F77A2FF7FF04C0662028
:1042A00011F07FEF7A0FEE27FF27E81BF90B97FD40
:1042B00002C0F0E0E0E0A981BA81D02EA038B105BB
:1042C0001CF0A0E8DA2ED81ADE1AA72F072E000C51
:1042D000BB0B7F3F0CF0A7C0FA2EF094FD8211E0DB
:1042E00019836E2D677009F41982E694E694E694BA
:1042F0006981E60EAE0DB11D19971CF068E0E62E3F
:10430000E71A7D80770E172D60E81603D00111247F
:104310008A0F9B1F8E0F9F1F262C062C000C330824
:10432000A3E0CA1282C0B2E0BB83602F6D19AB81DB
:104330006A9F602D11248A2E912CBD810B9FE00D68
:10434000F11D1124E89DD001E99DB00DF89DB00D3F
:1043500011245A01AA0EBB1E2115310509F49A0138
:10436000A40141505109A40FB51F2A0F3B1FAFEF05
:10437000B0E0062C02C0AA0FBB1F0A94E2F7AD0101
:10438000409550955A8349834E2C470E70E05B81CF
:104390005D9D600D711D1124741409F45FC0DC0172
:1043A000A95FBC4FBC83AB8310E000E0512CD51457
:1043B00009F44CC0F501E00FF11F449150E0022CCC
:1043C00002C0440F551F0A94E2F7B2E0E981FA8176
:1043D000CB1641F0EBEFCE122BC0FA01E095F09531
:1043E00050E040E077FC06C0AB81BC81FC90FE222F
:1043F000F42AFC92662069F0B6E0B71554F0EB8021
:10440000FC80A0E8EA0EF11CD7014C914F23452B0C
:104410004C935394080D191D4B815C814F5F5F4F86
:104420005C834B83C4CF1D825ACF11E01B837DCFA9
:10443000F901E00FF11FE491F0E0022C02C0EE0F51
:10444000FF1F0A94E2F7E095F095CCCF7394A60E87
:10445000B71E260F371F80589F4F9ECF0F900F908B
:104460000F900F900F90DF91CF911F910F91FF90C0
:10447000EF90DF90CF90BF90AF909F908F907F9004
:104480006F905F904F903F902F9008954F925F9262
:104490006F927F928F929F92AF92BF92CF92DF9254
:1044A000EF92FF920F931F93CF93DF934C0159012B
:1044B000FC2DC02FD0E0CE01880D991D18161906CD
:1044C0000CF06CC020E8821691040CF067C09B01D0
:1044D0002E0D311D121613060CF060C060347105EC
:1044E0000CF05CC04115510509F458C0E62FE77087
:1044F000FE2EDB0177FD179633E0B595A7953A952B
:10450000E1F73A2F77FF04C0FF2011F03FEF3A0F99
:10451000662777276819790997FC02C070E060E088
:10452000803891050CF44BC090E89819961BA32F86
:10453000032E000CBB0B1A2F10953F3F0CF010E020
:1045400021E08E2D877009F420E0E694E694E6944D
:10455000E20EAE0DB11D19971CF028E0E22EE31A11
:10456000E11A310F20E83203D0011124A80DB91D42
:10457000A60FB71F019F600D711D1124460F571F15
:104580000F2D0F2C000C110BF33009F41CC1C8F4D3
:10459000F13009F4D0C0F23009F47CC0DF91CF9142
:1045A0001F910F91FF90EF90DF90CF90BF90AF9051
:1045B0009F908F907F906F905F904F900895902F75
:1045C000B5CFFA3FB1F1232F2E0DFB3F39F732174C
:1045D00029F3BD01695F7C4FD12CC12CC91608F0AD
:1045E000A4C0FA01EC0DFD1DE491F0E04F01002E96
:1045F00002C0880C991C0A94E2F737FD06C0FB0143
:104600008081E82CE0948E218083FF2061F0373098
:1046100054F45B01F0E8AF0EB11CE92CE094F50115
:1046200080818E218083FFEFCF1ADF0A6F5F7F4F7B
:10463000D5CF232F2E0D321709F4B0CFBD01695FFE
:104640007C4FD12CC12CC91608F069C0FA01EC0DC1
:10465000FD1DE491F0E04F01002E02C0880C991C72
:104660000A94E2F737FD04C0FB018081882980832A
:10467000FF2051F0373044F45B01F0E8AF0EB11C7D
:10468000F501808189298083FFEFCF1ADF0A6F5FF0
:104690007F4FD9CF6FEF70E00F2C02C0660F771FEE
:1046A0000A94E2F760957095772E232F2E0D32171E
:1046B00009F474CFFD01E95FFC4F6F01B12CA12C0F
:1046C000A91638F5FA01EA0DFB1DE491F0E02F017F
:1046D000002E02C0440C551C0A94E2F737FD05C0B9
:1046E000F6018081862384298083FF2059F03730AA
:1046F0004CF44601F0E88F0E911CF4018081872173
:1047000085298083FFEFAF1ABF0A8FEFC81AD80A36
:10471000D7CF3F5F4C0F5D1FA058BF4FC8CF3F5F43
:104720004C0F5D1FA058BF4F86CF3F5F4C0F5D1FE2
:10473000A058BF4F4CCF6A0D7B1D232F2E0D321773
:1047400009F42CCFFD01E95FFC4F6F01B12CA12CC6
:10475000A91688F5FB01EA0DFB1D8490912C002E13
:1047600002C0880C991C0A94E2F780949094FA0194
:10477000EA0DFB1D6490712C002E02C0660C771CA4
:104780000A94E2F737FD05C0F60180818821862969
:104790008083FF2049F037303CF4F601E058FF4FAA
:1047A0008081892187298083FFEFAF1ABF0A8FEFAD
:1047B000C81AD80ACDCF3F5F4C0F5D1F6C0F7D1F0D
:1047C000A058BF4FBCCFC92ED12CFA01E60FF71F5E
:1047D000A95FBC4F00E810E00C191D09CC19DD09D8
:1047E000BE01660F771F41E050E06A010F2C01C047
:1047F000CC0C0A94EAF7592F2E2D792ECF93DF9304
:10480000ED01EF96EF9622968590A590FF2059F046
:104810008C9C4001AC9C500137302CF4E880B09463
:10482000EB20E928E99233233AF0EC90A094EA20B7
:10483000E828ED920C941D2411965A9529F72A9593
:1048400051F0572D33951124E60FF11DA00FB11D26
:10485000C00FD11DD9CFDF91CF9111249FCECF9220
:10486000EF920F934115510561F0FA0104913196D1
:10487000E4904E5F5F4F2AEFC22E30E020E00E94AE
:1048800046220F91EF90CF900895CF92EF920F9321
:10489000FA0104913196E4904E5F5F4F22E0C22E00
:1048A00030E020E00E9446220F91EF90CF900895D3
:1048B000F89487E78093000880930108A89588E121
:1048C0008093600088E080936000FFCF8F929F927A
:1048D000AF92BF92CF92DF92EF92FF926C01F12CD8
:1048E000E12C0E94EC204B015C010E94EC20681935
:1048F00079098A099B09683E734081059105A8F3EF
:1049000021E0C21AD108E108F10888EE880E83E0A0
:10491000981EA11CB11CC114D104E104F10429F7B3
:10492000FF90EF90DF90CF90BF90AF909F908F90CF
:1049300008958FB18095807F669B88601C9B846002
:10494000089508954EE05DE364E070E083E090E058
:104950000E9445244EE05DE363E070E083E090E078
:104960000E9445244AE45CE369E170E080E190E064
:104970000E94452444E85BE36DE270E08BE190E047
:104980000E94452444E85BE36CE270E08BE190E038
:104990000C944524DC01FB0180859185909598233A
:1049A00084FF0FC012962C911297203140F42F5F94
:1049B00012962C9393FF02C082E0878708950E948D
:1049C000582412961C92F6CF08950F931F93CF93FD
:1049D000DF93EC014EE55BE361E170E08FE290E094
:1049E0000E94452440E45BE36AE170E08BE290E0E2
:1049F0000E94452440E45BE36AE170E089E490E0D2
:104A00000E9445248A81811114C040E45BE36AE17D
:104A100070E08AE390E00E94452440EF5AE36EE2A2
:104A200070E08AE190E0DF91CF911F910F910C949B
:104A3000452442ED5AE36AE170E08AE390E00E9487
:104A400045244FEA5AE36EE270E08CE290E00E9467
:104A500045248A816FE00E94B135082F0370CFE4AE
:104A6000D0E010E0011749F041E061E370E0CE01D1
:104A70000E9444201F5F2296F5CFDF91CF911F91B6
:104A80000F910895FC01DB0119968C91199780957F
:104A900018969C911897892399F08281882311F0A8
:104AA0008CE78283928191110EC081E0828380E441
:104AB0008093900081E49FE0909399008093980008
:104AC00092819923B1F09F5F9283953059F09D3781
:104AD00061F0923071F480E596E4909399008093B0
:104AE0009800089510929000089581E01F968C938D
:104AF00008950895CF92EF920F93CF93DF93EC0137
:104B00006A3071F48D818C838E819985890F8E83B3
:104B100081E090E0DF91CF910F91EF90CF900895D9
:104B2000AC816E3719F4AF5FAC83F2CF962F6E81F4
:104B30006F5F9A33B8F4903308F05FC09B3209F48A
:104B40005EC048F4913209F45EC098859D5F8C8107
:104B5000890F8C83DDCF9D3209F453C09E32A9F7B3
:104B60009FE311C09B3550F4913408F044C09A3350
:104B700009F43FC09F3349F792E405C08FE9890FDC
:104B800097548A3110F7062E000C770B0A2E000C72
:104B9000BB0BE9E8F1E32AE831E38F818130A9F525
:104BA0000491F901E4904BE851E39923D1F041E0FD
:104BB00050E08E2D877011F450E040E02E2D2695A8
:104BC00026952695240F352F311D029FF001039F56
:104BD000F00D11249E9FA0019F9F500D1124455759
:104BE0005E4C9AEFC92E30E020E0CD010E941121E9
:104BF000ACCF93E4C8CF9154C6CF9C5FC4CF91E4AF
:104C0000C2CF90E4C0CF9EE3BECF0491F901E490FF
:104C10004BE851E39923D1F041E050E08E2D8770AD
:104C200011F450E040E02E2D269526952695240F70
:104C3000352F311D029FF001039FF00D11249E9F1F
:104C4000A0019F9F500D112445575E4C8BEFC82E3D
:104C5000CACF089590E080E00895089508950895DA
:104C600008950895089508952F923F924F925F926C
:104C70006F927F928F929F92AF92BF92CF92DF926C
:104C8000EF92FF920F931F93CF93DF93CDB7DEB7D1
:104C90002C970FB6F894DEBF0FBECDBF8C018AE90A
:104CA00090E00E940A35582E8BE990E00E940A3568
:104CB0008C87680182E0C80ED11C652C712C9EE99E
:104CC000E92EF12C412CFE0131965F01CE010996AF
:104CD0009A8789879C8549123CC00E571F4FF12C3B
:104CE000E12C88E0282EFE0131966F01CE01099655
:104CF0009A878987E51408F07AC0F601822D11920F
:104D00008A95E9F75701312C812C99249A94431400
:104D100089F0C50182569F4F0E940A358F70881610
:104D200009F454C0882E813009F05DC0939498E056
:104D300099124FC0F601D80181918D9389859A858A
:104D40008E179F07C9F79FEFE91AF90A085F1F4FEF
:104D5000D1CFF50188E011928A95E9F74701312C0E
:104D6000212C9FEF9B87351471F0C4010E940A35F6
:104D70008F702816C1F0282E813019F5EB85EF5F72
:104D8000EB87E83099F4F501D60181918D938985FF
:104D90009A85E817F907C9F7439498E0C90ED11C22
:104DA000E60CF71C97CFF1E02F120BC0F5018B85B5
:104DB000E80FF11D87FDFA9580818F5F80832224A3
:104DC000239433949FEF891A990ACDCFE1E08E1294
:104DD0000AC0F601E90DF11D97FCFA9580818F5FFD
:104DE0008083882483943394A60CB71C90CF2C9690
:104DF0000FB6F894DEBF0FBECDBFDF91CF911F91EC
:104E00000F91FF90EF90DF90CF90BF90AF909F9069
:104E10008F907F906F905F904F903F902F9008956C
:104E20001F93CF93DF93EC018CE990E00E940A3549
:104E3000182FFE01E25FFE4F80838DE990E00E9413
:104E40000A35FE01E15FFE4F80833296912F990F64
:104E5000990F910F9D5F9083319797E0899F802DE7
:104E600011248E5F8083339610823496108235979A
:104E700010821C861D86CE010C96DF91CF911F916A
:104E80000C943426FF920F931F93CF93DF938C01E2
:104E9000F62E8AE990E00E940A35F8019181C081DE
:104EA000D0E0C256DF4F899FC00DD11D1124CE0125
:104EB0000E940A358071682F6F29CE010E94183533
:104EC000C801DF91CF911F910F91FF900C94342670
:104ED000CF93DF93EC018AE990E00E940A35998133
:104EE000288130E022563F4FA901899F400D511D76
:104EF0001124CA010E940A358F70DF91CF91089565
:104F0000AF92BF92CF92DF92EF92FF920F931F93D7
:104F1000CF93DF93EC017B01DB0118960C9118977E
:104F200019961C9110951023B12FB072BB2E15FD50
:104F300010C005FF3EC0FB01868197816FE070E0E5
:104F40000E94BD35FE01EA5EFE4F2081281719063A
:104F500081F56E01FCE0CF0ED11C8AE990E00E9441
:104F60000A359C85911101C08C878C8581508C8776
:104F7000B11055C013FD09C003FF07C0FE01E85E74
:104F8000FE4F6081C6010E94422712FDEEC002FF63
:104F9000ECC0C85EDE4F6881C601DF91CF911F91E2
:104FA0000F91FF90EF90DF90CF90BF90AF900C9457
:104FB0004227212F2074B22E16FF0EC06E01FCE096
:104FC000CF0ED11C8AE990E00E940A359C859F5F34
:104FD000891791F19C87CCCF06FF0EC0F70186811F
:104FE00097816FE070E00E94BD35FE01EA5EFE4FE2
:104FF00020812817190611F317FF20C06E01FCE06D
:10500000CF0ED11C8BE990E00E940A359D8591114D
:1050100001C08D878D8581508D8717FFABCFFE0135
:10502000EA5EFE4FD70116968D919C916FE070E07D
:105030000E94BD3580839ECF1C869ACF07FF0EC08D
:10504000F701868197816FE070E00E94BD35FE0117
:10505000EA5EFE4F20812817190681F2212F207168
:10506000B22E14FF0FC06E01FCE0CF0ED11C8BE9F5
:1050700090E00E940A359D859F5F891709F480C0E2
:105080009D8776CF04FF0EC0F701868197816FE080
:1050900070E00E94BD35FE01EA5EFE4F20812817B8
:1050A000190609F3FE01EE5EFE4F80819E01295E26
:1050B0003E4F6901811184C0F9018081803408F07C
:1050C00086C05E01FCE0AF0EB11C9C85990F990F64
:1050D000990FFE01EF5EFE4F8081980F8D85880F3E
:1050E000880F880F31972081820F3496973708F404
:1050F00049C097579083FE01EB5EFE4F873308F45B
:1051000043C08753808313FF11C0C5010E946827E5
:105110008130E1F110F0823049F461E0C5010E9474
:10512000422781E0FE01E85EFE4F808312FF07C048
:10513000C5010E946827823090F18230C9F10C705D
:105140000C3031F4D6018C91803410F48F5F8C9345
:10515000F701918593FF09C0808583FD06C092FF0A
:1051600004C082FD02C0D6011C92DF91CF911F9135
:105170000F91FF90EF90DF90CF90BF90AF90089588
:105180001D86F6CE1082B7CF1082BDCF60E0C5017C
:105190000E944227FE01E85EFE4F1082C7CF62E008
:1051A000C5010E944227C85EDE4F82E08883C7CFD8
:1051B00060E0C5010E944227C85EDE4F1882BFCF63
:1051C000CD5EDE4F8881803470F48F5F8883D60196
:1051D0008C91803450F213FF03C082E0F70187877F
:1051E00012FDC1CFC2CF13FFF2CF82E0F701878754
:1051F000EECF2F923F924F925F926F927F928F925B
:105200009F92AF92BF92CF92DF92EF92FF920F9355
:105210001F93CF93DF93CDB7DEB769970FB6F8949E
:10522000DEBF0FBECDBFFC01EE0FFF1FEE52F24CF2
:1052300065907490F301F491F98BF30131963490F9
:10524000232D2770F32CF694F694F6942111F39401
:10525000BC0188E990E00E942A3569898AE990E0DA
:105260000E941835632D8BE990E00E94183529893A
:10527000022F10E0C80123E0880F991F2A95E1F75B
:105280009B8B8A8B92E0690E711C512C412CB12CA6
:10529000A12CEF2DF0E0FD8BEC8B2C893D89A21623
:1052A000B30608F459C0CE0101967C01AA24BB24A0
:1052B000A81AB90A8EE9682E712C212C512C3210B3
:1052C0008DC07E01F9E0EF0EF11C662477246E1884
:1052D0007F08D12CC12C412C2989C21608F0DAC0D4
:1052E000F70128E011922A95E9F75601312C812C1B
:1052F00099249A94231479F0C50182569F4F0E94F5
:105300000A35881509F4B5C0803109F0BEC0939400
:1053100038E09312B1C0570180E04301E3E68E1AF2
:10532000EEEF9E0AF50161915F0133243394380E4C
:10533000662319F0841508F0432CC4018A0D9B1DC7
:105340000E941835832D883069F7FFEFCF1ADF0AE6
:1053500028E0620E711CC0CFF12CE12CF201E25664
:10536000FF4FF98FE88FE016F10670F5F701E60DB3
:10537000F71DE491888C998C8E0C9F1CD12CC12C2C
:105380002E2F30E03F8B2E8B81E090E00C2C02C062
:10539000880F991F0A94E2F7EE89FF898E239F23D5
:1053A00060E1892B09F460E0C4010E941835FFEF29
:1053B000CF1ADF0A800E911E28E0C216D10421F711
:1053C0003FEFE31AF30ACFCF8FEFA81AB80A600EA7
:1053D000711EEA89FB894E0E5F1E5FCFF70128E040
:1053E00011922A95E9F76301412C812C99249A9412
:1053F0003989341559F0C6010E940A35881539F1EA
:10540000803189F5939488E0981224C0670180E088
:105410004501F3EE8F1AFDEF9F0AF60161916F01CE
:1054200044244394480E662319F0851508F0542C43
:10543000C4018C0D9D1D0E941835842D883069F79C
:105440002394F8E0AF0EB11C600E711E38CF90E1CE
:10545000891209C0F701E90DF11D97FCFA958081C9
:105460008F5F808380E14394EFEFCE1ADE0A882EAF
:10547000BFCF90E1891209C0F701E90DF11D97FC3A
:10548000FA9580818F5F808380E13394A00EB11EF6
:10549000882E30CF652D8CE990E00E941835642D60
:1054A0008DE990E00E94183569960FB6F894DEBF3A
:1054B0000FBECDBFDF91CF911F910F91FF90EF9065
:1054C000DF90CF90BF90AF909F908F907F906F9024
:1054D0005F904F903F902F9008950E94FC36FB0103
:1054E00001900020E9F73197AF01461B570BDC0113
:1054F000ED91FC910280F381E02D09948F929F92AF
:10550000AF92BF92EF92FF920F931F93CF93DF93CF
:10551000CDB7DEB7A1970FB6F894DEBF0FBECDBFF3
:105520007C01FA01CB0119A2223008F42AE08E0195
:105530000F5D1F4F822E912CB12CA12CBF01A50114
:1055400094010E948035F901CA016A300CF5605D52
:10555000D8016E938D01232B242B252B79F790E016
:1055600080E0109721F0BD01C7010E946F2AA1962B
:105570000FB6F894DEBF0FBECDBFDF91CF911F9164
:105580000F91FF90EF90BF90AF909F908F900895F4
:10559000695CDECF2F923F924F925F926F927F9223
:1055A0008F929F92AF92BF92CF92DF92EF92FF9233
:1055B0000F931F93CF93DF93CDB7DEB72C970FB622
:1055C000F894DEBF0FBECDBF9C878B876B01FC01BB
:1055D0008485958569E170E00E94BD355B01982F57
:1055E000712C823038F04EEF742E780E863110F028
:1055F00034E1732EF5E0F70DFD83672C680E9230D1
:1056000038F08451682E973110F422E0622E670C36
:1056100089E18A9D80018B9D100D1124780122E67D
:10562000E21A2DEFF20A180139E4231A3DEF330A8A
:105630004701512CC4010E940A35813009F453946A
:105640008FEF881A980A82149304A1F7550C550C11
:105650005A824DEA59E370E060E090E080E00E94F9
:1056600045244BEA58E360E370E090E080E00E945C
:105670004524F6018681978160E370E00E94BD3584
:105680008E83272C072C000C330844085508FBE0B8
:10569000F983D12CC12C872D072C000C990B980174
:1056A000280F391F38872F8309E1FC01EE0DFF1DFC
:1056B000FA87E9872B853C852E5F3F4F3C832B8300
:1056C0009BE2E92E3D8173160CF068C08F809884B0
:1056D0008C0C9D1C880C991CC4018E52924C4C0160
:1056E000FC0185919491FC01F49031961491FE8116
:1056F000F93110F4761461F00C9DC0010D9D900DF0
:10570000112447E658E364E170E004960E942F24D8
:1057100089859A858C0D9D1D0E940A350C9D9001EE
:105720000D9D300D1124813091F5F4014591549176
:1057300016956EE170E0611B7109C9010E96F69431
:105740008F1991090E942F242981EB85FC852683DE
:105750002783E08638E0371534F069EB71E08B8100
:105760009C810E946F2A8FEF281A380A480A580A2B
:105770002AE0B201A1018B819C810E947E2A739450
:105780009FEFC91AD90AE981E75EE9839BCF45E516
:1057900058E364E170E0C9010A96D4CF0B851C85FB
:1057A0000E5F1F4F8AE2EB85FC8586838783108618
:1057B0006501F5E0CF0ED11CF12CE12C2AE0B701F8
:1057C000A601C8010E947E2A6BEB71E0C8010E940D
:1057D0006F2A2AE0B701A601C8010E947E2A8DE542
:1057E000EB85FC85868387831086FA81F43668F41E
:1057F00069EB71E0C8010E946F2A2A812A3028F4DF
:1058000069EB71E0C8010E946F2A3A81432F50E092
:1058100070E060E02AE0C8010E947E2AA114B10471
:1058200001F543E458E362E070E089E490E02C96EF
:105830000FB6F894DEBF0FBECDBFDF91CF911F91A1
:105840000F91FF90EF90DF90CF90BF90AF909F901F
:105850008F907F906F905F904F903F902F900C941F
:105860002F244CE458E362E070E081E490E00E9471
:105870002F248BE0A816B104A0F22C960FB6F89452
:10588000DEBF0FBECDBFDF91CF911F910F91FF9073
:10589000EF90DF90CF90BF90AF909F908F907F90D0
:1058A0006F905F904F903F902F900895EF92FF92EE
:1058B0000F931F93CF93DF93FC01EB012985209574
:1058C0008885282304851585C80169E170E00E9458
:1058D000BD3525FF06C0882321F001501109158729
:1058E000048726FF07C0883129F0848595850196B5
:1058F0009587848727FF07C0662329F084859585CF
:1059000049979587848724FF07C06B3028F48485E6
:10591000958549969587848723FF11C07E01EF0105
:1059200088E990E00E9412358C018C859D850817CE
:10593000190761F00E94F92883E0F7018787DF915A
:10594000CF911F910F91FF90EF90089502561D4F38
:10595000C8010E940A35813079F760E0C8010E94D1
:1059600018358C859D85E6CF0F931F93CF93DF93DA
:105970008C0188E990E00E941235F80195878487B0
:105980008BE990E00E940A35811104C090E080E02C
:105990000E94F928F801C485D585CE0182569D4F15
:1059A0000E940A35813079F42196CC32F1E0DF078C
:1059B00050F4CE0182569D4F0E940A358111F4CFDA
:1059C000F801D587C487DF91CF911F910F9108957A
:1059D0002F923F924F925F926F927F928F929F92FF
:1059E000AF92BF92CF92DF92EF92FF920F931F93ED
:1059F000CF93DF93CDB7DEB7CA56D1090FB6F8946F
:105A0000DEBF0FBECDBF1C016F967FAF6EAF6F972D
:105A100085E5EAE0F1E08E010F5F1F4FD8010190AC
:105A20000D928A95E1F76F96AEADBFAD6F97169662
:105A30000D90BC91A02DAB96BFAFAEAFAB978AE9EE
:105A400090E00E940A356D968FAF6D97A82EAA0C34
:105A5000AA0CA80E90E0019625E0289F2001299F1E
:105A6000500C11246D96BFAC6D97BB0CBB0CBB0CDE
:105A7000E12CF12CF101E05FFE4F6A96FFAFEEAF33
:105A80006A9791012B5E3E4F68963FAF2EAF6897A5
:105A9000C1018F5E9E4F6C969FAF8EAF6C97D10108
:105AA000AC5EBE4FA196BFAFAEAFA19738016F9667
:105AB000CEACDFAC6F97B3E0CB0ED11CE8E0FE9E1E
:105AC000400111241A2D812F90E06A96AEADBFAD32
:105AD0006A974C916896EEADFFAD689730816C96F1
